:020000040800F2
:10000000D00D0020B1010008631800081717000880
:100010006118000849030008C91C0008000000001E
:100020000000000000000000000000008919000826
:10003000E105000800000000751800088B19000891
:10004000CB010008CB010008CB010008CB01000860
:10005000CB010008CB010008CB010008CB01000850
:10006000CB010008CB010008CB010008CB01000840
:10007000CB010008CB010008CB010008CB01000830
:10008000CB010008CB010008CB01000800000000F4
:10009000000000000000000000000000CB0100088C
:1000A000CB010008351A0008CB010008CB0100087D
:1000B000CB010008CB010008CB010008CB010008F0
:1000C000CB010008CB010008CB010008CB010008E0
:1000D000CB010008CB010008CB01000800000000A4
:1000E000CB010008CB010008CB0100080000000094
:1000F000000000000000000000000000CB0100082C
:1001000000000000CB010008CB010008CB01000873
:1001100000000000000000000000000000000000DF
:10012000CB010008CB010008CB010008CB0100087F
:10013000CB010008000000000000000000000000EB
:10014000000000000000000000000000CB010008DB
:10015000CB010008CB010008CB010008CB0100084F
:10016000CB010008CB0100080000000000000000E7
:10017000000000000000000000000000000000007F
:1001800000000000CB01000800000000000000009B
:10019000CB010008CB010008DFF810D000F0C2F856
:1001A0000048004721290008AFF30080D00D00204F
:1001B0000648804706480047FEE7FEE7FEE7FEE701
:1001C000FEE7FEE7FEE7FEE7FEE7FEE7251A00088A
:1001D000990100082DE9F05F0546002092469B46F4
:1001E00088460646814640241BE02846414647464D
:1001F000224600F087F853465A46C01A914110D360
:1002000011461846224600F06EF82D1A67EB0108D9
:100210004F4622460120002100F065F817EB000947
:100220004E41201EA4F10104DFDC484631462A4637
:100230004346BDE8F09F10B5431A934209D2831894
:10024000881803E010F8011D03F8011D521EF9D2B1
:1002500010BD40EA01039B0703D009E008C9121F43
:1002600008C0042AFAD203E011F8013B00F8013B70
:10027000521EF9D210BDD2B201E000F8012B491E86
:10028000FBD270470022F6E710B513460A46044633
:100290001946FFF7F0FF204610BD10B5044604E0F4
:1002A0000B7800F8013B03B1491C521EF8D22046DE
:1002B00010BDCAB2401E10F8011F8A4202D00029A8
:1002C000F9D100207047421C10F8011B0029FBD116
:1002D000801A7047034611F8012B00F8012B002A01
:1002E000F9D118467047202A04DB203A00FA02F1BF
:1002F000002070479140C2F1200320FA03F3194314
:1003000090407047202A04DB203A21FA02F00021B5
:10031000704721FA02F3D040C2F120029140084315
:1003200019467047064C074D06E0E06840F00103AF
:1003300094E8070098471034AC42F6D3FFF730FF3B
:100340003846000858460008FEE70000F8B50F469A
:100350000646002506221E490920009501F0E2FC10
:100360001B4C20786178E2780843A1781143084358
:1003700021790843617908430CD125700820607009
:10038000DC20A070E57025716571062221460920E8
:1003900001F02EFD30460E4E0E49403EB070F76320
:1003A000E078421821798B18627948401344504014
:1003B0001844B063042269460F2001F019FD04229D
:1003C0006946012001F014FD03F074F83570F8BDA2
:1003D000C8000020785634122DE9F041464C2078B0
:1003E000062822D0A07840F2034101EB002001F062
:1003F0006DFC222805D0002344220221A07803F0BE
:1004000003FC012502F07AFCC2B23B4894F90030AB
:10041000C01D00260127011F4FF00308052B2FD216
:10042000DFE803F0060D1C304A000520BDE8F0812E
:10043000067046708670C67003F0C6F85AE0022A4D
:100440001BD1E16B0A7C02704A7C42708A7C82700C
:10045000C97CC17003F0A4F902202BE0052A0AD15F
:1004600001F05CFF08B1606A3CE003F023F8E06A49
:100470008047267004E0062A3AD001F081FF054645
:100480002846D3E7A2690425531CF9D0E369B3EBEE
:10049000520FF5D902780A7042784A7082788A70D1
:1004A000C078C870A06B401CA06303F079F903F01A
:1004B00001F804202070E3E70425052ADBD16670EB
:1004C0000A7803789A420BD14A7843789A4207D146
:1004D0008A7883789A4203D1C978C078814202D061
:1004E000A06A0325804702F0E5FF84F80080C7E793
:1004F00002F0E0FF2770C3E78800002010B5034C2E
:10050000A07801F089FF0620207010BD880000202F
:100510000248C169491CC161704700008800002081
:10052000034A107041F22210516050807047000061
:10053000D80000202DE9F04380460020234C89B0EC
:10054000914660700D4603460246A0600221207865
:1005500003F05AFB4FF48076334629460020626848
:1005600002F0A4F8352782B24346009729E02078AC
:1005700002F050F9050017D0B54200D9354607A85A
:10058000009006AB2A462078616802F01FFE4A46BA
:1005900001A8616802F08EFC0546207801F03CFF5E
:1005A000284609B0BDE8F08301F022FF002804DAF4
:1005B000207801F031FF0020F3E7D8D143462A46E6
:1005C00000972078616803F033FAD0E7D800002064
:1005D00002488168491C816070470000D8000020F3
:1005E0007047000070B5044600F004F90546601C31
:1005F00002D004480078044400F0FCF8401BA042FC
:10060000FAD370BD300000202DE9F84FDFF8B8A113
:10061000002201240AF1040B03254FF00F090BF10E
:10062000040E00BF0B6804FA02F63340B34273D1E4
:100630000F7907F00307012F01D0022F16D1876829
:100640004FEA420805FA08FC27EA0C07D1F80CC06B
:100650000CFA08FC4CEA070CC0F808C04768B7431E
:100660000E79C6F3001696403E4346600E79F64377
:10067000B6070DD0C768560005FA06FC27EA0C0736
:10068000D1F808C00CFA06FC4CEA070CC0F80CC004
:100690000E7906F00306022E10D1D60800EB86086C
:1006A000D8F8206057074FEAD76C09FA0CF7BE4319
:1006B0000F6907FA0CF73743C8F8207006684FEA4D
:1006C000420C05FA0CF7BE430F7907F0030707FA4F
:1006D0000CF7374307604E6816F4403F6DD03B4E31
:1006E000376847F480473760366822F0030706F41E
:1006F00080460096364E07EB060CDCF80868970734
:100700003F0F09FA07F826EA0806DFF8C8804045D7
:1007100003D14FF000081EE04FE0DFF8BC804045F9
:1007200002D14FF0010816E0DFF8B080404502D159
:100730004FF002080FE0DFF8A880404502D14FF0EB
:10074000030808E0DFF89C80404502D14FF0040820
:1007500001E04FF0070808FA07F848EA0608CCF865
:100760000888DAF800605746D1F804C09E435FEA73
:10077000CC3C00D51E433E60DBF800605F46D1F8FC
:1007800004C09E435FEA8C3C00D51E433E60DEF809
:1007900000607746D1F804C09E435FEACC2C00D5B8
:1007A0001E433E60084F0C373E68D1F804C09E439C
:1007B0005FEA8C2C00D51E433E60521C102AFFF4C9
:1007C00031AFBDE8F88F0000003C014044380240E2
:1007D00000300140000002400004024000080240D6
:1007E000000C0240001002400AB181617047090408
:1007F000FBE70000014880687047000030000020DF
:1008000002488168027811448160704730000020FE
:100810000B4810B5016841F400710160016841F4B2
:1008200080610160016841F480710160032000F083
:1008300071F8002000F006F800F024F8002010BD48
:10084000003C024070B50D4D04464FF47A71287893
:10085000B1FBF0F00A490968B1FBF0F000F093FC3D
:1008600048B9102C07D200222146501E00F032F861
:1008700000206C6070BD012070BD000030000020C1
:100880003C0000200B4882B0016841F480410160C7
:10089000006800F4804000900648001F016841F0A5
:1008A00080510160006800F080500090072002B085
:1008B00000F030B844380240002809DB00F01F0285
:1008C000012191404009800000F1E020C0F80011B2
:1008D00070470000F0B40E4B1B680C46C3F30223B4
:1008E000C3F10705042D00D90425191D072901D2DC
:1008F000002300E0DB1E012606FA05F1491E214017
:1009000099409E40761E16403143F0BC01F0BABAC1
:100910000CED00E0064900F0070208684FF6FF03FF
:10092000184040EA0220034A104308607047000064
:100930000CED00E00000FA052DE9F0470E46050039
:1009400065D0DFF81481D8F80000F7B200F0070096
:10095000B04207D288F80070D8F8000000F0070015
:10096000B04254D128683D4C810712D5400703D5C9
:10097000206840F4E05020602878000703D5206804
:1009800040F4604020602068A96820F0F00008432F
:1009900020602878C0072DD03049686808390128C0
:1009A00012D0022813D0032811D009688907002922
:1009B0002DDA216821F0030101432160FFF71AFFBE
:1009C000814641F2883A0EE009688903EFE7096839
:1009D0008901ECE7FFF70EFFA0EB0901514502D9B1
:1009E0000320BDE8F0872068696800F00C00B0EBD8
:1009F000810FEFD1D8F80010404601F00701B14255
:100A000007D90770006800F00700B04201D001204C
:100A1000E7E72878400705D52068E96820F4E0502A
:100A2000084320602878000706D52068296920F44B
:100A3000604040EAC100206000F038F82168084AB0
:100A4000C1F30311515CC8400649086006480068BC
:100A5000FFF7F8FE0020C4E7003C024008380240DF
:100A6000484500083C0000203400002004480549A7
:100A700000680968044AC1F38221515CC84070478C
:100A80003C00002008380240584500080448054949
:100A900000680968044AC1F34231515CC84070479C
:100AA0003C0000200838024058450008154810B5A1
:100AB000006810F00C02144813D04110042A0FD023
:100AC000082A0ED10F4C241F2268236802F03F022F
:100AD0005B0207D52068C0F38810A0FB010106E087
:100AE000084610BD2168C1F38811A1FB0001002355
:100AF000FFF770FB2168C1F30141491C4900B0FBBD
:100B0000F1F010BD083802400024F4002DE9F84F40
:100B100004006ED02078DFF84C93C007A9F10405DB
:100B20004AD009F104000168C1F38101012908D00C
:100B30000068C0F3810002280AD1D9F80000400201
:100B400006D52868800337D560680028E1D033E0F7
:100B50006068B0F5803F10D0B0F5A02F286810D0A5
:100B600020F480302860286820F4802028606068A5
:100B7000A8B1FFF73FFE06460DE0286840F480303C
:100B8000F4E740F480202860F7E700BFFFF732FE6B
:100B9000801B642873D828688003F7D50CE0FFF722
:100BA00029FE064605E000BFFFF724FE801B6428EF
:100BB000F0D828688003F7D42078DFF8AC8280076B
:100BC0004FF0000A3ED5A748001D016811F00C0F38
:100BD00008D00068C0F3810002280BD1D9F80000CA
:100BE000400207D42868800716D5E068012800D1A4
:100BF00012E033E1E068B8B10120C8F80000FFF767
:100C0000F9FD064605E000BFFFF7F4FD801B022852
:100C1000C0D828688007F7D52868216920F0F80037
:100C200040EAC10028600DE0C8F800A0FFF7E2FD2F
:100C3000064604E0FFF7DEFD801B02281FD8286867
:100C40008007F7D42078000722D5864F874861694E
:100C5000703771B101210160FFF7CCFD064604E059
:100C6000FFF7C8FD801B022809D838688007F7D530
:100C70000EE0C0F800A0FFF7BDFD064605E082E0EB
:100C8000FFF7B8FD801B02287DD838688007F7D4AD
:100C90002078400768D5DFF8CCB100270BF13C0B7A
:100CA000DBF80000C0000BD4DBF8001041F08051ED
:100CB000CBF80010DBF80000012700F08050009016
:100CC0006B4E3068C00510D4306840F480703060DE
:100CD000FFF790FD009005E0FFF78CFD0099401AAA
:100CE000022850D83068C005F6D55E4EA0686C3634
:100CF00001280FD00528306810D020F001003060A6
:100D0000306820F004003060A068B8B1FFF772FDD1
:100D100000900FE0306840F00100F4E740F004007C
:100D20003060F7E7FFF766FD0099411A41F288301D
:100D3000814266D830688007F4D50EE0FFF75AFD8F
:100D4000009007E0FFF756FD0099411A41F2883004
:100D5000814256D830688007F4D42FB1DBF80010F8
:100D600021F08051CBF80010A069C8B33D49091D9E
:100D70000968C1F3810102294AD00228504607D0F0
:100D8000C8F8600000E03CE0FFF734FD04463BE0BB
:100D90004746C8F86000FFF72DFD064605E000BF96
:100DA000FFF728FD801B02282BD828688001F7D484
:100DB000D4E907010843A16A2E4A490802EB014120
:100DC000626A41EA8211084394F82C1040EA0161FA
:100DD000C9F8001001203866FFF70CFD044606E054
:100DE0003EE000BFFFF706FD001B022809D8286877
:100DF0008001F7D534E000BFFFF7FCFC001B0228A0
:100E000002D90320BDE8F88F28688001F4D427E0D8
:100E10000128F7D0D9F80000E26900F4800191427E
:100E20001CD1226A00F03F01914217D147F6C071F0
:100E3000626A0140B1EB821F10D1A26A4FF0FF330A
:100E400000F4403103EB5202B1EB024F06D194F8AB
:100E50002C1000F07060B0EB016F01D00120D1E7E1
:100E60000020CFE70438024000004742800E47428E
:100E7000007000400000FFFF90F85100704770B50F
:100E8000040009D0606A002540B125616561A56252
:100E900094F8510040B10CE0012070BD6068B0F5DD
:100EA000827FF4D0E561F2E784F85050204600F0EC
:100EB00045F8022084F851002068016821F04001C3
:100EC0000160A088218900F4827001F40441084384
:100ED000A18901F400610843217C01F0020108436B
:100EE000217D01F001010843218B01F400710843C9
:100EF000217F01F03801084394F8201001F08001AF
:100F00000843218D01F40051084321680860A0695D
:100F1000042101EA104094F8241001F01001084364
:100F2000216848602068C16921F40061C16165657C
:100F3000012084F85100002070BD000010B586B07B
:100F4000044614216846FFF79DF91349206888423A
:100F500020D112480021026842F4805202600068E9
:100F600000F4805005900D481438026842F00102E8
:100F70000260006800F001000590E020009002206F
:100F8000CDE901010320039005200490694604483F
:100F9000FFF73AFB06B010BD003001404438024074
:100FA000000002402DE9F84F044690F85000002759
:100FB0000A9E1D4692468B464FF0010901280ED02D
:100FC000012084F85000FFF715FC804694F851008A
:100FD000616801280CD0B1F5827F07D102E00220C0
:100FE000BDE8F88FA16809B9042801D00227C2E042
:100FF000BBF1000F27D0BAF1000F24D01DB394F835
:101000005100042802D0052084F8510000206065BA
:10101000C4F838A0E587A587C4F830B0E586A58672
:101020002064606420680168490603D4016841F0C7
:1010300040010160E068B0F5006F606805D0E8B37A
:10104000012D46D07FE0012795E008B1012D39D16F
:10105000206B21680088C860206B801C2063E08EB4
:10106000401EE0862EE02068816889070FD5E18E5A
:1010700069B1B9F1010F0AD1216B0988C160206BF8
:10108000801C2063E08E401EE0864FF0000920683F
:101090008168C9070CD0E18F51B1C068A16B08808D
:1010A000A06B801CA063E08F401EE0874FF0010919
:1010B000FFF7A0FBA0EB0800B04200E009E001D37D
:1010C000701C50D1E08E0028CDD1E08F0028CAD10D
:1010D0003FE0206B216800780873206B401C206380
:1010E000E08E401EE0862EE02068816889070FD5DB
:1010F000E18E69B1B9F1010F0AD1216B0978017351
:10110000206B401C2063E08E401EE0864FF00009FB
:1011100020688168C9070CD0E18F51B1C068A16B0C
:101120000870A06B401CA063E08F401EE0874FF06A
:101130000109FFF75FFBA0EB0800B04202D3701C6F
:1011400001D010E07EB1E08E0028CDD1E08F0028E4
:10115000CAD142463146204600F08EFB28B1012715
:101160002020606507E0032705E0A06818B9206823
:10117000C16880680090012084F85100002084F844
:10118000500038462CE710B5401EB0F1807F01D3E7
:10119000012010BD4FF0E02460610F21601700F0C6
:1011A00071FE0020A06107202061002010BD704763
:1011B0007047000070B590F83C20012A2CD0012423
:1011C00080F83C40022280F83D2003685A689D6800
:1011D00022F070060A6832435A60104B02689A4245
:1011E0000ED0B2F1804F0BD00D4B9A4208D00D4B70
:1011F0009A4205D00C4B9A4202D00C4B9A4204D131
:10120000496825F080031943916080F83D40002132
:1012100080F83C10084670BD022070BD00000140FF
:101220000004004000080040000C00400040014065
:1012300010B5040003D094F83D0010B107E0012080
:1012400010BD002084F83C00204600F01FF802206A
:1012500084F83D00211D206800F0F2FB012084F895
:10126000460084F83E0084F83F0084F8400084F88B
:10127000410084F8420084F8430084F8440084F874
:10128000450084F83D00002010BD000008B500684E
:101290000B49884212D10B48016841F001010160FD
:1012A0000068002200F00100009011461920FFF7AD
:1012B00011FBBDE808401920FFF7FEBA08BD000089
:1012C000000001404438024090F83D10012901D04F
:1012D00001207047022180F83D100168CA6842F081
:1012E0000102CA6000680E4988420ED0B0F1804FFA
:1012F0000BD00C49884208D00B49884205D00B49D5
:10130000884202D00A49884204D1816801F007016D
:10131000062903D0016841F00101016000207047F7
:10132000000001400004004000080040000C0040A4
:101330000040014070B5044690F83C0000250128AB
:1013400017D0012684F83C60022084F83D00206814
:10135000826822F0770222F47F4282600868502877
:1013600038D00DDC20284FD005DC90B3102811D1E7
:101370004AE0022070BD302846D040280AD13BE028
:1013800060282FD070280DD0B0F5805F03D0B0F565
:10139000005F12D0012584F83D60002084F83C00F5
:1013A000284670BDCB68D1E90121206800F094FB8C
:1013B0002068816841F0770109E0CB68D1E901211B
:1013C000206800F089FB2068816841F480418160D9
:1013D000E1E719E0CA684968206800F08FFB5021F6
:1013E000206806E0CA684968206800F098FB602120
:1013F000206800F07BFBCEE7CA684968206800F0EF
:101400007DFB40212068F4E7226801461046F0E7A2
:10141000704770B50446006801694FF00005C94384
:10142000890715D4C168C943890711D4E91E016130
:1014300001202077206880698007204602D0FFF7CE
:10144000E7FF04E000F098F8204600F096F82577D2
:1014500020680169C943490717D4C168C9434907CE
:1014600013D46FF0040101610220207720688069A5
:1014700010F4407F204602D0FFF7CAFF04E000F0DE
:101480007BF8204600F079F8257720680169C94388
:10149000090716D4C168C943090712D46FF00801BF
:1014A0000161042020772068C0698007204602D0AF
:1014B000FFF7AEFF04E000F05FF8204600F05DF8B3
:1014C000257720680169C943C90617D4C168C94393
:1014D000C90613D46FF0100101610820207720683D
:1014E000C06910F4407F204602D0FFF791FF04E06E
:1014F00000F042F8204600F040F8257720680169A6
:10150000C943C90708D1C168C943C90704D1891EA5
:101510000161204600F032F820680169C9430906DC
:1015200009D4C168C943090605D46FF0800101617F
:101530002046FFF73CFE20680169C943490609D4EB
:10154000C168C943490605D46FF0400101612046D6
:1015500000F022F820680169C94389060BD4C168EC
:10156000C943890607D46FF0200101612046BDE818
:101570007040FFF71DBE70BD704770470449884238
:1015800004D104480068002800D0004770470000DC
:1015900044090020E4000020704770B5040004D026
:1015A00094F83D00002510B106E0012070BD84F8DC
:1015B0003C50204600F022F8242084F83D002068AA
:1015C000C16821F40051C160204600F0BBFA2068D8
:1015D000016921F4904101612068416921F02A01EB
:1015E00041612068C16841F40051C1602564202038
:1015F00084F83D0084F83E00002070BD10B586B030
:10160000044614216846FEF73DFE134920688842CF
:1016100020D112480021026842F4003202600068C2
:1016200000F4003005900D481038026842F00102C5
:101630000260006800F0010005900C20009002207C
:10164000CDE9010103200390072004906946044876
:10165000FEF7DAFF06B010BD0044004040380240FB
:10166000000002402DE9F843044690F83D001F4673
:1016700016460D4620284CD1C5B1BEB194F83C00A9
:10168000012846D0012084F83C004FF00008C4F83F
:101690004080212084F83D00FFF7ACF8A684814605
:1016A000E684A068B0F5805F03D004E00120BDE8C7
:1016B000F883206928B12E465FF0000584F83C804D
:1016C0000EE00026FAE78021204600F0C1FAA0B91A
:1016D000AEB116F8010B21684860E08C401EE08432
:1016E000E08C4B464FF0000200970028EBD14FF002
:1016F0004001204600F0ACFA30B10320D7E735F8BE
:10170000020BC0F30800E6E7202084F83D0000202B
:10171000CDE70220CBE7FEE730B587B0142168465D
:10172000FEF7B0FD1F480024016841F0040101608C
:10173000016801F004010591016841F08001016038
:10174000016801F080010591016841F0010101602B
:10175000016801F001010591016841F00201016099
:101760000068114D00F0020005900122402128463A
:10177000FFF73AF84FF4005000904FF40410CDE911
:10178000010469460948FEF73FFF40200121CDE9E9
:1017900000010220CDE9021069462846FEF734FF19
:1017A00007B030BD3038024000040240000802405B
:1017B0000F4810B50D4901604FF48271416000215E
:1017C0008160C1604FF400720161C0E90512082216
:1017D000C0E90721416281620A21C162FFF74FFB24
:1017E000002801D072B6FEE710BD000000300140B5
:1017F000EC08002010B586B000241848009401942D
:101800000294039404941449059401606421C0E98E
:10181000011440F2E731C0E903148021C0E9054119
:10182000FFF706FD08B172B6FEE74FF48050009056
:1018300069460A48FFF77EFD08B172B6FEE70494D8
:1018400004A906480594FFF7B5FC002801D072B63C
:10185000FEE706B010BD0000000001404409002072
:10186000FEE7FEE700F00F00092801D8303070478E
:10187000373070477047000038B504461248134BA4
:101880000068B0FBF3F04FF47A735843009060683F
:10189000B0F5827F0DD10B460092002280212046B8
:1018A00000F016F870B1606D40F020006065032014
:1018B00038BD009830B1401E009020688068C04359
:1018C0000006F6D5002038BD3C00002000366E0131
:1018D0002DE9F8431E46914688460446089DFEF7CA
:1018E00089FF401B351AFEF785FF0746254800682B
:1018F000C0F3CB30684338E0701C37D0FEF77AFF76
:10190000C01BA84203D215B1009860B32CE0206838
:10191000416821F0E00141606068B0F5827F0BD141
:10192000A068B0F5004F02D0B0F5806F04D12068F8
:10193000016821F040010160A06AB0F5005F09D1A3
:101940002068016821F4005101602068016841F4B9
:1019500000510160012084F85100002084F85000FB
:101960000320BDE8F8830025401E009020688168B0
:1019700038EA010004D000214945BDD10020F0E73C
:101980000121F9E73C0000207047FEF739BF000055
:1019900030B593B030216846FEF774FC14210CA8D2
:1019A000FEF770FC1D480024016841F08051016081
:1019B000006800F0805011901948016841F44041DE
:1019C00001600068022500F4404011900120009061
:1019D0004FF4A02001906805CDE90650082008903A
:1019E0004FF4C870099004200A900B906846FFF7E6
:1019F0008DF808B172B6FEE70F20CDE90C054FF463
:101A00008050CDE90E4003210CA81094FEF794FFFE
:101A1000002801D072B6FEE713B030BD4038024056
:101A2000007000400248016841F470010160704795
:101A300088ED00E00148FFF7ECBC000044090020FD
:101A4000F0B502681D4B1E4C9F031E4D1E4E984262
:101A500007D0B84205D0A04203D0A84201D0B0427E
:101A600004D122F0700C4A6842EA0C02984210D06D
:101A7000B8420ED0A0420CD0A8420AD0B04208D042
:101A8000124CA04205D0124CA04202D0114CA042F0
:101A900003D122F44074CA6822434C6922F08002C8
:101AA000224302608A68C2620A688262984201D157
:101AB0000969016301214161F0BD0000000001409E
:101AC0000004004000080040000C004000400140BD
:101AD000004401400048014010B5846842EA0322F6
:101AE00024F47F440A432243826010BD826822F0BE
:101AF00070020A4342F007018160704710B5036A23
:101B0000046A24F001040462846924F0F00444EAC5
:101B1000021423F00A020A438461026210BD10B568
:101B2000036A23F0100303628369046A23F4704399
:101B300043EA023224F0A00343EA01118261016208
:101B400010BD000070B5044600680169E26821F428
:101B50004051114301612169A068E269084361694C
:101B6000114308432168CA6849F20C639A4302434F
:101B7000CA6020684169A26921F440711143416142
:101B800031492068884202D03049884202D1FEF7AC
:101B90007DFF01E0FEF76AFFE26900231921642559
:101BA0003226B2F5004F626828D0A0FB0101930FE6
:101BB0009200FEF70FFB0146B0FBF5F06FF0180244
:101BC000504301EB800006EB0010B0FBF5F000F095
:101BD000F002B1FBF5F002EB0012B1FBF5F06FF093
:101BE0001803584301EB800006EB0010B0FBF5F042
:101BF00000F00F0021681044886070BDA0FB010157
:101C000092185B41FEF7E6FA0146B0FBF5F00201DF
:101C1000B1FBF5F06FF01803584301EB800006EBC1
:101C2000C000B0FBF5F000F0F80002EB4002B1FBA1
:101C3000F5F0584301EB800006EBC000B0FBF5F077
:101C400000F00700D6E7000000100140001401403A
:101C50002DE9F041984617460E460446069D27E0BA
:101C6000681C25D02DB1FEF7C5FDA0EB0800A842E9
:101C70001ED920680C3050E8001F21F4D07140E8D4
:101C80000012002AF5D12068143050E8001F21F01E
:101C9000010140E80012002AF5D1202084F83D001F
:101CA00084F83E00002084F83C000320BDE8F08169
:101CB0002068006836EA000004D00020B842CFD087
:101CC0000020F3E70120F9E7FEE70000F8B5144C27
:101CD0000546E068804760698047606AC5F307266B
:101CE000A0B1A26A92B10F208DF800008DF80160BA
:101CF0008DF80250032168469047E0698047054609
:101D0000A0698047206980472846F8BD216A0F20D6
:101D10008847216A30468847216AE8B28847ECE75D
:101D20005C0000202DE9F8431A4C05469046E06817
:101D300089460026804760698047606AC5F30727A7
:101D4000A8B1A26A9AB10F208DF800008DF8017039
:101D50008DF80250032168469047626A4146484622
:101D60009047A069804720698047BDE8F883216AD1
:101D70000F208847216A38468847216AE8B2884799
:101D800005E0E069804709F80600761CB6B24645D2
:101D9000F7D3E6E75C000020F8B5144C05460F4683
:101DA000E068804760698047A26AC5F3072682B170
:101DB000F0208DF800008DF801608DF802508DF84C
:101DC0000370042168469047A069804720698047D6
:101DD000F8BD216AF0208847216A30468847216A89
:101DE000E8B28847216A38468847EDE75C00002062
:101DF0002DE9F8431A4C05469046E06889460026CE
:101E0000804760698047A26AC5F307279AB1F0202E
:101E10008DF800008DF801708DF80250032168469E
:101E20009047A26A414648469047A069804720698A
:101E30008047BDE8F883216AF0208847216A384648
:101E40008847216AE8B2884706E000BF216A19F88E
:101E500006008847761CB6B24645F7D3E5E7000092
:101E60005C0000200FB4054B10B503A9044A02988A
:101E700000F028F810BC5DF814FB00008127000872
:101E8000E80000200907090E002804DB00F1E0202B
:101E900080F80014704700F00F0000F1E02080F897
:101EA000141D704702E008C8121F08C1002AFAD1A9
:101EB00070477047002001E001C1121F002AFBD1CA
:101EC000704700002DE9FF4F8DB00F4605460026F4
:101ED00006E025280BD0DDE90F1290476D1C761C1B
:101EE00028780028F5D111B03046BDE8F08F0024E5
:101EF000A246A1460122E94900E0044315F8013F4A
:101F0000203B02FA03F00842F7D128782A2810D0A3
:101F10006FF02F022878A0F13001092914D80AEBBC
:101F20008A0102EB410144F0020400EB010A6D1C3E
:101F3000F0E701CF5FEA000A03D544F40054CAF188
:101F4000000A44F002046D1C28782E2817D115F8D9
:101F5000010F44F004042A280ED06FF02F022878D5
:101F6000A0F1300109290AD809EB890102EB4101EE
:101F700000EB01096D1CF2E757F8049B6D1C2878F3
:101F80006C280FD006DC4C2817D068280DD06A28A2
:101F900014D104E0742810D07A280FD10DE044F455
:101FA00000140AE044F4801401E044F44014697819
:101FB000814202D104F580146D1C6D1C28786E28B6
:101FC0001ED00CDC632830D004DC00288BD05828CD
:101FD00011D19FE0642867D069280CD164E0732890
:101FE0002DD004DC6F2872D0702804D194E07528BD
:101FF0006ED078286DD0DDE90F129047761C4BE14A
:10200000C4F30250022806D0032809D0042801CFC7
:1020100009D0066040E101CFF117C0E900613BE162
:1020200001CF068038E1067036E117F8040B8DF811
:10203000000000208DF80100EB46012003E057F876
:1020400004BB4FF0FF3061074FF0000102D40DE0F8
:1020500008F10101884649450FDA8045F8DB1BF895
:1020600008100029F4D108E008F1010188468142F6
:10207000FADB1BF808100029F6D1DDE90F23AAEBE3
:1020800008008146214600F031F9304400EB080693
:1020900004E0DDE90F121BF8010B9047B8F10108CD
:1020A000F7D221464846F2E00A21C4F302524FF02B
:1020B000000B0891022A04D001CFC117032A09D0CE
:1020C0000AE0FF1D27F00707F7E8020108E02CE00F
:1020D0001EE01FE000B2C117042A01D140B2C117AF
:1020E000021E71F1000206DA0023D0EB030063EB5D
:1020F00001012D2202E0220504D52B228DF8242097
:10210000012203E0E20701D02022F7E7904653E0E6
:102110000A210BE0102109E010214FF0000B44F0E0
:1021200004044FF00809089103E008214FF0000B68
:102130000891C4F30252022A04D001CF0021032ADD
:1021400006D006E0FF1D27F00707F7E8020103E0CD
:1021500080B2042A00D1C0B24FF0000822072BD56C
:102160002A78702A07D0DDF820C08CF0100C5CEAC9
:102170000B0C05D00EE040228DF82420012208E04F
:1021800050EA010306D030238DF824308DF8252045
:1021900002229046089B83F0080353EA0B030BD1FD
:1021A00050EA010201D1620706D530228DF82420C1
:1021B0004FF00108A9F101092A78582A04D038A261
:1021C0000B9208AA0A920BE03AA2F9E75B46089A3A
:1021D000FEF700F80B9B9B5C0A9A521E0A92137042
:1021E00050EA0102F2D10A98ADEB000000F1200B99
:1021F000600702D524F4803401E04FF00109D9458D
:1022000002DDA9EB0B0000E0002000EB0B014144D4
:102210000890AAEB010AE00306D4DDE90F2321466A
:10222000504600F063F806444FF0000908E009A9A1
:1022300011F80900DDE90F12904709F10109761C38
:10224000C145F4DBE0030CD5DDE90F232146504600
:1022500000F04CF8064404E0DDE90F12302090470E
:10226000761C0899481E08900029F5DC08E00A98B9
:102270000A990078491C0A91DDE90F129047761CF3
:10228000BBF10001ABF1010BF1DC21465046DDE969
:102290000F2300F019F806446D1C21E609280100FF
:1022A00030313233343536373839616263646566CC
:1022B000000000003031323334353637383941428E
:1022C00043444546000000002DE9F0410446002546
:1022D0001E461746880404D405E039462020B0473E
:1022E0006D1C641EF9D52846BDE8F0812DE9F0414A
:1022F000044600251E469046C80301D5302700E05D
:102300002027880404D505E041463846B0476D1CB7
:10231000641EF9D52846BDE8F0810000F8B5192003
:10232000FFF7D4FC054603211920FFF735FD0E4BBE
:1023300041F28830DC1F009011220CA1A07801F03E
:1023400077FB064629461920FFF726FD0D3608D0F3
:1023500001F0BAF8E069E169091A0229FBD300200B
:10236000F8BD0120F8BD00008F0000204348454320
:102370004B5F49505F434F4E464C49435400000069
:1023800070B51A4C0125204694F90110002690F9E9
:102390000000022917DAD4E90721914223D201284B
:1023A00004D0022805D0042805D102E001F00CF980
:1023B00001E001F0F5F9E661E0690A302062607839
:1023C000401C60700FE0012804D0022805D00428CA
:1023D00007D102E02670002503E001F0F5F80120A6
:1023E000207001F067F8284670BD000088000020CA
:1023F0000848816803290BD30022826041780229B2
:1024000002D34270501E7047491C41700020704733
:1024100001207047D800002070B50446042802D976
:102420004FF0FF3070BD40F2014000EB0420054644
:102430001021FFF7B1FC2846FFF748FC0028FAD12D
:1024400040F2024000EB0420FF21FFF7A5FC0D49FC
:102450000120A0404A8882434A808A8882438A8039
:102460000A31002021F81400091F085540F20340EA
:1024700000EB04242046FFF729FC0028FAD10120B4
:1024800070BD00004000002010B50C4606281ED28A
:10249000DFE800F003070B101418204601F04EFF90
:1024A00013E0204601F02CFE0FE02078BDE810403C
:1024B00001F06CBF01F04CFE207006E0204601F0F8
:1024C00077FF02E0204601F046FE002010BD4FF0ED
:1024D000FF3010BD70B50C46002102464D1E084667
:1024E000102A41D2DFE802F0080B1612191D4040F5
:1024F00021303337493B404201F06FFF3DE00CB1E2
:102500002046211DBDE8704001F036BE208801F054
:102510005BFD32E001F0E2FD05E0208801F004FF00
:102520002BE001F0E2FD208027E015488278227040
:10253000C27862700279A2704279E2708279227167
:10254000C0796071A17118E001F0AEFF15E020467E
:1025500001F0B9FF11E0204601F084FF0DE0207882
:10256000BDE8704001F0D1BF284670BD01F092FF78
:10257000C0B241B2491CF7D02070002070BD0000ED
:102580005C00002010B5042208490F20FFF730FC42
:102590000649042208310520FFF72AFC03490422DA
:1025A000091DBDE810400120FFF722BC8F0000206C
:1025B00010B580210020FFF7EFFB0020FFF786FB1E
:1025C0000622BDE8104002490920FFF711BC0000B7
:1025D000C800002010B580210020FFF7DDFB00209F
:1025E000FFF774FBFFF7CEFF0622BDE8104002495B
:1025F0000920FFF7FDBB0000C800002070B5B0B097
:1026000015460C460646C0236A4600F0BFFC411C36
:1026100049D00444204600F0C1F80A3410283FD2C3
:10262000DFE800F03E08153E3E152B1515153E3E21
:10263000151A3E2114F8010B287014F8010B68706C
:1026400014F8020BA87014F8010CE87028E0C023FD
:102650006A460BE0044423E014F8010B204410F810
:10266000011B44181CE0C0236A46A41C21463046C6
:1026700000F08CFC411C16D0ECE7C0236A462146D2
:10268000304600F083FC411C0DD00444C0236A4650
:102690002146304600F07AFC411C04D00444143436
:1026A000204630B070BD0020FBE700002DE9F0436C
:1026B000034691461046294A0D46B1B05188491C3F
:1026C00089B2518000F07CFD4FF4807141EAC32152
:1026D00089B200F075FD012100F072FD002100F0CB
:1026E0006FFD002100F06CFD002100F069FD044643
:1026F00029466846FDF7EEFD6E463046FDF7E3FDE0
:102700001FFA80F82E213046FDF7D3FD070002D0D6
:10271000B81B85B200E0454604F8015B8DB12A463E
:1027200031462046FDF7B9FD2C443FB1A8EB05002A
:10273000401E2E441FFA80F8761CE3E7002004F8C0
:10274000010B0121204600F03BFD012100F038FD86
:10275000A0EB090031B000B2BDE8F083D800002042
:1027600010B5B0B00C46C0236A4600F00FFC411C07
:1027700003D02044001D30B010BD0020FBE7000056
:1027800038B504468DF800000A2301226946024844
:10279000FEF768FF204638BD8C090020017840789C
:1027A00000EB012080B2704701488069704700004B
:1027B0008800002004490A7802704A7842708A78BA
:1027C0008270C978C17070479B00002004490A7864
:1027D00002704A7842708A788270C978C1707047F6
:1027E0009300002004490A7802704A7842708A787F
:1027F0008270C978C17070478F00002004490A7840
:1028000002704A7842708A788270C978C1707047C5
:10281000970000202DE9F04140F22641002601EB0F
:102820000025491C01EB00242846FFF74FFA074614
:102830002046FFF74BFA00EB072007043F0C09D0B6
:102840002846FFF743FA06462046FFF73FFA00EB1B
:10285000062086B2BE42E7D13046BDE8F0812DE9C0
:10286000F041002406464FF4C04503274FF001080D
:102870000EE01A20FFF72AFA610007FA01F2104071
:10288000C84008FA00F188B2641C05EB802564B2E8
:10289000B442EEDB2846BDE8F0812DE9F0414FF46B
:1028A0008461002601EB0025491C01EB0024284629
:1028B000FFF70CFA07462046FFF708FA00EB07205F
:1028C00007043F0C09D02846FFF700FA06462046C9
:1028D000FFF7FCF900EB062086B2BE42E7D1304696
:1028E000BDE8F0812DE9F041002406464FF4804513
:1028F00003274FF001080EE01B20FFF7E7F9610006
:1029000007FA01F21040C84008FA00F188B2641CCE
:1029100005EB802564B2B442EEDB2846BDE8F081C9
:1029200088B000252E462F46FDF772FFFFF730F8DE
:10293000FEF7F2FEFEF73CFF6B486A490024016097
:102940004FF4E131C0E901140C21C460C0E9044135
:102950008461C461FEF721FE08B172B6FEE7FEF79E
:1029600049FF62A0FFF77EFA644801F0F3FA01F034
:1029700030FD01F035FB01F0CDFC01F05FFC01F012
:10298000F7FADFF87C91A9F1080899F816000228F7
:1029900039D0D8F818200092B8F81C10ADF80410FF
:1029A0008DF806001822494602A8FDF744FC0DF1F7
:1029B000080C9CE80F0000F097F9D8F81810009167
:1029C000B8F81C10ADF8041098F81E008DF8060039
:1029D0001822494602A8FDF72EFC0DF1080C9CE8D0
:1029E0000F0000F00DFB47490120FDF799FDA246BD
:1029F000444688F801A0C8464FF47A7998F8160042
:102A000002280DD034E040A0FFF72CFA3D49002009
:102A1000FDF79CFC4349424A084600F0E3FCE2E72C
:102A2000FDF7DAFC0546042801D07DB106E02078E8
:102A300020B93DA0FFF716FA01202070052E0FD90E
:102A40003DA0FFF70FFAFDF759FDFEE7761CF6B241
:102A500084F800A0052EF3D831463BA0FFF702FA18
:102A6000484601F0CBFA2A46617841A0FFF7FAF90F
:102A700060780028C2D1042DC0D147A0FFF7F2F939
:102A8000DFF87CB00BF1120B1D4A5846121F02F101
:102A90001B01FDF74FFD002814DD40A0FFF7E2F910
:102AA000174942A01731FFF7DDF91548001FC1781B
:102AB000009183784278017842A0FFF7D3F9012092
:102AC00060709BE77F1CFFB2052F07D8394646A0F0
:102AD000FFF7C8F9484601F091FAD5E74BA0FFF798
:102AE000C1F9FEE7004400408C09002048656C6C89
:102AF0006F20576F726C640D0A0000008934000863
:102B000008000020EC000020204448435020636C63
:102B100069656E742072756E6E696E670A000000DA
:102B2000BD40000811400008204448435020737500
:102B300063636573730A0000204448435020666154
:102B4000696C65640A0000002044484350207469A1
:102B50006D656F7574206F63637572726564206153
:102B60006E642072657472792025640A000000008A
:102B7000675F646E735F6765745F69705F666C61E1
:102B800067203D2025642C2072657476616C203DA1
:102B90002025640D0A000000320D0A0020444E5327
:102BA00020737563636573730A00000020546172BB
:102BB00067657420646F6D61696E203A2025730A21
:102BC00000000000204950206F6620746172676524
:102BD0007420646F6D61696E203A2025642E25642F
:102BE0002E25642E25640A0020444E532074696DFE
:102BF000656F7574206F6363757272656420616EB2
:102C0000642072657472792025640A0020444E5352
:102C1000206661696C65640A000000001CB506222C
:102C200069460920FFF77EF82E4A0120D16B087013
:102C30004870062088700020C870936B1B0E0B71C3
:102C4000936B1B0C4B71138F1B0A8B7192F83830EE
:102C5000CB71D16B802308818B72C872D16B02F16A
:102C60004003087348738873C87308744874887481
:102C7000C874087548758875C8750876487688766A
:102C8000C8761C780C775C784C779C788C77DC78ED
:102C9000CC771C7981F820405B7981F821300623BC
:102CA000CC185B1CDBB22077102BF9D3D36B00213F
:102CB0005C18491CC9B284F82C004029F8D3D36BA6
:102CC00000215C18491CC9B284F86C008029F8D333
:102CD000D06B6321822200F8EC1F42705322827075
:102CE000C1701CBD880000200FB4002010B502A9DF
:102CF000FFF7CAFB10BC5DF814FB00002DE9FF4193
:102D00006B4C0025A078FFF785FD02005BD003A87F
:102D1000009001ABA078E16B00F058FA86B2BDF8E4
:102D20000C0043286ED1E06B04F14001027F0B7868
:102D30009A4248D1437F4A78934244D1827F8B782C
:102D40009A4240D1C27FCB789A423CD190F8202061
:102D50000B799A4237D190F8212049798A4232D1B1
:102D600004F130010A1D0F782FB94B781BB98B780D
:102D70000BB9CB785BB39DF80430BB4211D19DF801
:102D8000057091F801C067450BD19DF8067091F868
:102D900002C0674505D19DF8077091F803C06745EB
:102DA00015D01778BB420ED19DF8057053789F421D
:102DB00009D19DF806309778BB4204D19DF80730C1
:102DC000D778BB4203D0002004B0BDE8F081F030DA
:102DD0008319F03B14E00678332E44D007DCAEB103
:102DE000012E18D0032E21D0062E06D124E0352E38
:102DF0000ED0362E46D0FF2E06D04678801C3044AA
:102E00009842E8D368B2DFE71846F9E7401CF7E7D5
:102E10008578C01CF4E7264E87780F363770C77860
:102E200077700779B7704779F7703FE0204E4778A1
:102E300010F802CF0B3604E047781D4E10F802CF91
:102E4000133686F800C010F801CF86F801C010F8DC
:102E500001CF86F802C090F801C0801C384486F883
:102E600003C0001FCCE78678A661C77807EB06266B
:102E7000A661077907EB0626A661477907EB0626C8
:102E8000A66113E086780E70C6784E7006798E7053
:102E90004679CE709DF8046016709DF805605670F6
:102EA0009DF8066096709DF80760D670801DA7E7B4
:102EB000880000202DE9F0410D469046044612217D
:102EC000FDF7E0F92846FFF769FC2080A81CFFF712
:102ED00065FC02044FF0010100D5A170C0F3C322CC
:102EE000E270420500D52171820500D56171C205ED
:102EF00000D5A171020600D5E17100F00F0020722B
:102F0000281DFFF74BFC6081A81DFFF747FCA0813F
:102F100005F10800FFF742FCE08105F10A00FFF728
:102F20003DFC0026208205F10C01771E06E02846B4
:102F3000FFF716FC010014D0761CB6B26089B042CF
:102F4000F5D8002607E042462846FFF757FB010068
:102F500007D0761CB6B2A089B042F4D80020E1892F
:102F600004E03846BDE8F081401C80B28142FBD8C5
:102F70000020218A01E0401C80B28142FBD8207AE7
:102F800008B10020EEE70120ECE70000F0B50746AD
:102F90000020054606464FF02E0C00BF11F8014BED
:102FA00005B9401C4FEA941EBEF1030F0AD105B9C2
:102FB000401C097804F03F0407EB04242144012558
:102FC00011F8014BACB11B1B5B1E1BB2002B02DACC
:102FD0004FF0FF30F0BD2DB9204403E011F801EBB4
:102FE00002F801EB641EA4B2F8D202F801CB761C01
:102FF000D4E70EB902F801CB00211170F0BD00003A
:103000000FB400B585B000200390049006A90120FC
:10301000FFF73AFA03A90820FFF75CFA9DF82E00A3
:1030200002282A484DD0FEF71DFF03A928A000BFA3
:10303000FEF718FF9DF81B009DF81D209DF81C1041
:103040008DE807009DF81A309DF819209DF818109A
:1030500029A0FEF707FF9DF8210000909DF8203081
:103060009DF81F209DF81E102FA0FEF7FBFE9DF877
:10307000250000909DF824309DF823209DF8221013
:1030800030A0FEF7EFFE9DF8290000909DF8283053
:103090009DF827209DF8261031A0FEF7E3FE9DF84D
:1030A0002D0000909DF82C309DF82B209DF82A10C3
:1030B00032A0FEF7D7FE3848FEF7D4FE05B05DF823
:1030C00014FBFEF7CFFE03A934A0B1E7D0450008FA
:1030D000202573206E6574776F726B20636F6E6648
:1030E000696775726174696F6E203A2073746174D8
:1030F00069630A0A00000000204D4143202020207F
:1031000020202020203A20253032583A25303258CD
:103110003A253032583A253032583A253032583A2A
:10312000253032580A00000020495020202020205D
:1031300020202020203A2025642E25642E25642E70
:1031400025640A00205375626E6574204D61736BAF
:10315000203A2025642E25642E25642E25640A003D
:10316000204761746577617920202020203A20254E
:10317000642E25642E25642E25640A0020444E53B7
:103180002020202020202020203A2025642E256485
:103190002E25642E25640A0068450008202573202A
:1031A0006E6574776F726B20636F6E666967757298
:1031B0006174696F6E203A20444843500A0A000047
:1031C0000A0A00F8012B00F8011B70472DE9FF4F98
:1031D000002583B01F4690460446042803D9681E84
:1031E00007B0BDE8F08F4FF4806000EB0420FEF7DD
:1031F0006DFD834600F00F00022808D0032806D09A
:10320000042804D0052802D06FF00400E8E7B8F1E4
:10321000000F05D0DFF8C89139F8140018B120E08C
:103220006FF00D00DCE740F2034000EB04260120C4
:1032300000FA04FA2046FFF7EDFA05463046FEF79D
:1032400045FD38B166490A3949881AEA010F06D0A6
:103250001DB106E06FF00300C2E70020C0E7002DBB
:10326000E8D00BF00701DFF878A140F201404FF001
:10327000800BAAF1040A00EB0426022922D00329BC
:103280007CD0042952D02946204600F0D9FD29F8E7
:10329000145030464021FEF77FFD3046FEF716FD04
:1032A0000028FAD139F81410491B0904090C29F82F
:1032B000141003D01AF8041041F001010AF80410A8
:1032C00028468DE739F814004D4670BB0822694640
:1032D000204600F04DFD30464021FEF75DFD3046B2
:1032E000FEF7F4FC0028FAD19DF8000038709DF834
:1032F000010078709DF80200B8709DF80300F87026
:1033000010999DF8040008809DF8051001EB00203D
:10331000109908809DF806009DF807105BE02A468A
:103320002046049900F024FDB3E72AE039F81400A0
:103330004D4630BB02226946204600F019FD30465A
:103340004021FEF729FD3046FEF7C0FC0028FAD1E7
:103350009DF800009DF801106FF0010202EB0020C3
:10336000084480B240F2EA5125F81400884206D998
:103370002046FFF751F86FF47A7031E702E00AF85F
:1033800004B003E039F814004D4630B135F814505C
:1033900040464545C3D90546C1E706226946204651
:1033A00000F0E6FC30464021FEF7F6FC3046FEF722
:1033B0008DFC0028FAD19DF8000038709DF80100BE
:1033C00078709DF80200B8709DF80300F8709DF8C1
:1033D00004009DF8051001EB002025F81400CEE74D
:1033E0004A00002010B5084B064C5C62074C9C62FA
:1033F000074CDC6200B1586201B19962002A00D02A
:10340000DA6210BD8525000888000020D525000857
:10341000B1250008054A18B111B1C2E9030170478E
:103420000348D06003481061704700005C00002032
:10343000DD3F0008DF3F0008054A18B111B1C2E9BD
:1034400005017047034850610348906170470000D0
:103450005C000020FB3F0008F93F0008074A10B558
:1034600013889C05FDD518B111B1C2E9070110BD43
:103470000348D0610348106210BD00005C000020CA
:10348000D5430008D9430008094810B54188491CB4
:103490004180418840F2E732914207D300214180C8
:1034A000FDF736F8BDE81040FDF792B810BD0000FA
:1034B0000000002003480021C1610A22026241701D
:1034C00070470000880000201CB5FFF7A7FB3D48AF
:1034D00000213D22C06B4FF49C738172C172352173
:1034E00080F8F010012180F8F110042180F8F2102A
:1034F000072180F8F32080F8F410012180F8F510FE
:10350000304940310A7880F8F6204A7880F8F72070
:103510008A7880F8F820CA7880F8F9200A7980F84B
:10352000FA20497980F8FB10322180F8FC10042140
:1035300080F8FD102349C91D097880F8FE10214943
:10354000C91D497880F8FF101E49C91D897880F887
:1035500000111C49C91DC97880F80111362180F875
:103560000211042180F80311164930310A7880F8DD
:1035700004214A7880F805218A7880F80621C978E4
:1035800080F80711FF2180F808111D21002244183E
:10359000491C84F8EC209942F9DBFF208DF80400E7
:1035A0008DF805008DF806008DF807004320009087
:1035B000044801AB4FF40972C16B807800F038FA0F
:1035C0001CBD0000880000202DE9FC41FFF726FB10
:1035D000724800213522017041708170C170001D58
:1035E0000126017041708170C17034386B4BC06B23
:1035F00010331C4680F8F02080F8F16080F8F2600B
:103600003D2280F8F320072280F8F42080F8F5604E
:103610001A7880F8F6201A460625527880F8F720A6
:10362000A47880F8F8401C460C22E47880F8F94031
:103630001C460F27247980F8FA401C4603F1060C3B
:10364000647980F8FB4080F8FC2080F8FD1012229D
:1036500008E000BF00EB020E521C491C8EF8EC4043
:1036600092B289B21CF80140002CF3D1D87800093D
:10367000FEF7F8F8494C303CD4F83CC09444521C56
:103680008CF8EC0092B2D878FEF7ECF8D4F83CC095
:103690009444521C8CF8EC00187992B20009FEF7A1
:1036A000E1F8D4F83CC09444521C8CF8EC0092B27F
:1036B0001879FEF7D7F8D4F83CC09444521C8CF823
:1036C000EC00587992B20009FEF7CCF8D4F83CC06F
:1036D0009444521C8CF8EC0092B25879FEF7C2F870
:1036E000E36B03EB020C521C8CF8EC0092B2881DC9
:1036F000511A194481F8E500E06B37218318521CF8
:1037000083F8EC1091B24218491C82F8EC5089B24F
:103710004218491C89B2431882F8EC600322491C04
:1037200083F8EC2089B24218491C82F8EC5089B227
:103730004218491C89B2431882F8EC703A2283F887
:10374000EC20491C89B243183B2283F8EC20491C29
:1037500089B24318FF22491C83F8EC2089B2002368
:103760004FF49C7504E04618491C86F8EC3089B289
:10377000A942F8D38DF804208DF805208DF8062095
:103780008DF807204320009001AB4FF40972A07818
:10379000E16B00F04DF9BDE8FC810000B8000020AD
:1037A0002DE9FC5FFFF73AFADFF880C2FF270CF142
:1037B00007029CF90000002502F12904032841D0EA
:1037C00004283FD08DF804708DF805708DF80670D0
:1037D0008DF80770DCF83C003521012680F8F010E8
:1037E00080F8F1604FF0030980F8F2903D2180F8F5
:1037F000F3108E4B072180F8F410403380F8F56009
:10380000197880F8F61019464FF00C0A497880F8BC
:10381000F71019464FF00F0B897880F8F810194609
:10382000C97880F8F9101946097980F8FA10194614
:10383000497980F8FB109DF807801021B8F1FF0F3F
:1038400019D03FE0DCF83C008572C5721178017335
:103850005178417391788173D178C17320788DF854
:10386000040060788DF80500A0788DF80600E078F7
:103870008DF80700AEE7322180F8FC10042180F8B3
:10388000FD1092F8008080F8FE8092F8018080F8A8
:10389000FF8092F8028080F80081D27880F80121C0
:1038A000362280F8022180F80311217880F8041173
:1038B000617880F80511A17880F80611E17880F828
:1038C00007111C2152464418491C84F8EC20421868
:1038D000E24682F8EC50DFF854C100220CF1460CAD
:1038E000491C06E000EB0108491C88F8EC4089B24D
:1038F000521C1CF80240002CF4D1D8780009FDF7C6
:10390000B1FFDAF83CC054468C44491C8CF8EC00FA
:1039100089B2D878FDF7A6FFD4F83CC08C44491C86
:103920008CF8EC00187989B20009FDF79BFFD4F8F8
:103930003CC08C44491C8CF8EC0089B21879FDF726
:1039400091FFD4F83CC08C44491C8CF8EC005879A9
:1039500089B20009FDF786FFD4F83CC08C44491CAD
:103960008CF8EC0089B25879FDF77CFFE36B03EB30
:10397000010C491C8CF8EC0089B2901D8A1A1A447B
:1039800082F8E500E06B37224318491C83F8EC20ED
:1039900089B243180822491C83F8EC2089B24218E6
:1039A000491C89B2431882F8EC60491C83F8EC90FA
:1039B00089B24318062283F8EC20491C89B24318C7
:1039C000491C83F8ECB089B243183A2283F8EC2002
:1039D000491C89B243183B2283F8EC20491C89B268
:1039E00043181F2283F8EC20491C89B24318212276
:1039F000491C83F8EC2089B24218491C82F8EC700B
:103A000089B24FF49C7203E04318491C83F8EC50D0
:103A10009142F9DB4320009001AB4FF40972A0788A
:103A2000E16B00F005F8BDE8FC9F00008800002075
:103A30002DE9F84F1E46DDF8288015468A460446D3
:103A4000042803D94FF0FF30BDE8F88F4FF48060B1
:103A500000EB04200746FEF739F900F00F000228BA
:103A600006D0032804D0042802D06FF00400EBE74E
:103A70007DB130780090717801EB00200090B17832
:103A800001EB00200090F17811EB0020009003D0B2
:103A90000AE06FF00D00D7E73846FEF717F9400748
:103AA00002D46FF00B00CFE7B8F1000F07D1384612
:103AB000FEF70CF9400702D46FF00A00C4E740F2A9
:103AC000034000EB04200746FEF700F9422806D029
:103AD000222804D0322802D06FF00600B4E740F26A
:103AE0000C4000EB042004223146FEF781F94FF42C
:103AF00082604FEA182100EB0420FEF74DF940F2F6
:103B0000114008F0FF0100EB0420FEF745F91B20EF
:103B1000FEF7DCF801466000032282401140C140FC
:103B2000012606FA01F04FF6FF7101EA8020854276
:103B300000D90546DFF8C480A6402046FEF7ADFE5A
:103B400081463846FEF7C2F838B1B8F8020006429E
:103B500006D04D4504D9002076E76FF0030073E7E7
:103B60004D45EAD82A465146204600F08AF90422FB
:103B700069460F20FEF7D6F8009820B30020009089
:103B800040F2014000EB042006462021FEF704F934
:103B900040F2024000EB04243046FEF797F800287C
:103BA000FAD12046FEF792F8C10617D5204610211B
:103BB000FEF7F2F8009820B1042269460520FEF7CE
:103BC00017F9284640E7042269460520FEF7AAF8BF
:103BD00004220BA10520FEF70BF9D1E70007E0D581
:103BE00020460821FEF7D8F8009820B10422694643
:103BF0000520FEF7FDF86FF00C0025E740000020DF
:103C00000000000000000000F8B51E4617460D46F3
:103C10000446042802D94FF0FF30F8BD062D18D213
:103C2000DFE805F017030A0A0A0A042269460F2092
:103C3000FEF778F8009848B171076FF00500ECD4F2
:103C400096B1012D08D0022D0ED109E06FF00200CF
:103C5000F8BD6FF00400F8BD16F0210FFBD003E0B3
:103C6000B10601D53106F6D52046FEF7D5FB06F0A4
:103C7000F0014FF48060294300EB0420FEF78CF83C
:103C8000224D57B92F88781C80B2A0F57F4128803B
:103C9000F03902D14FF44040288040F20440390A04
:103CA00000EB0420FEF778F840F20540F9B200EB93
:103CB0000420FEF771F840F2014000EB04200746B3
:103CC0000121FEF769F83846FEF700F80028FAD11E
:103CD0000120A040698806F001028143A2400A4306
:103CE0006A80A9888143A980084900200A3121F807
:103CF0001400091F085540F2034000EB0425284634
:103D0000FDF7E4FF0028FAD060B2F8BD40000020C3
:103D100010B501463F20FEF73FF802214420FEF790
:103D20003BF84420FDF7D2FF0028FAD14320FDF7ED
:103D3000CDFF04464220FDF7C9FF44EA002010BD34
:103D400010B50C4601463F20FEF726F8210A402018
:103D5000FEF722F8E1B24120FEF71EF801214420CF
:103D6000FEF71AF84420FDF7B1FF0028FAD110BD84
:103D70002DE9F74F804640F2294101EB082082B03F
:103D800017468346FDF7A2FF04464FF4856101EB19
:103D900008208246FDF79AFF04EB00201FFA80F905
:103DA0001A20FDF793FF4FEA48060324B440204051
:103DB000F040012181404FF0FF3000EB812505EA02
:103DC00009054046FEF74BFD284480B200901A20BA
:103DD000FDF77CFF2040F0400121814088B2E919C5
:103DE000B1EB802F19D91A20FDF770FF2040F04069
:103DF00001218140C5EB812084B2224603990098BD
:103E0000FDF790FF03980519381B84B24046FEF772
:103E100026FD80B22246294602E03A4603990098E0
:103E2000FDF780FF09EB070084B2210A5046FDF739
:103E3000B3FF05B0E1B25846BDE8F04FFDF7ACBFA7
:103E40002DE9F041044640F2294000EB04250E46DE
:103E50002846FDF73BFF07464FF4856000EB04243E
:103E60002046FDF733FF07EB0020304486B2310ACD
:103E70002046FDF791FFF1B22846BDE8F041FDF77D
:103E80008BBF2DE9F74F804640F2254101EB08201A
:103E900082B017468346FDF719FF044640F22441DD
:103EA00001EB08208246FDF711FF04EB00201FFA0A
:103EB00080F91B20FDF70AFF4FEA48060324B440AF
:103EC0002040F040012181404FF0FF3000EB812580
:103ED00005EA09054046FEF705FD284480B200903A
:103EE0001B20FDF7F3FE2040F0400121814088B205
:103EF000E919B1EB802F19D91B20FDF7E7FE20400F
:103F0000F04001218140C5EB812084B22246039913
:103F10000098FDF76DFF03980519381B84B24046E1
:103F2000FEF7E0FC80B22246294602E03A460399B9
:103F30000098FDF75DFF09EB070084B2210A5046A7
:103F4000FDF72AFF05B0E1B25846BDE8F04FFDF796
:103F500023BF0000024908600248FDF7B5B9000020
:103F6000E400002044090020007870470170704789
:103F700010B58020FDF7AAFE512807D08020FDF75C
:103F8000A5FE014602A0FDF76DFFFEE710BD000093
:103F90002041434345535320455252203A20564531
:103FA0005253494F4E5220213D20307835312C203C
:103FB000726561642076616C7565203D20307825DE
:103FC0003032780A00000000010540F0100040EA9D
:103FD000117000F0E0011520FDF7DEBE704770475C
:103FE00001490248FFF716BAF53F0008F13F000803
:103FF00072B6704762B6704770477047FCF7F2BA06
:10400000012240210148FCF7EFBB00000004024000
:1040100010B5204C88B0A01DFEF7E4FB04F10E00A3
:10402000FEF7D4FB04F10A00FEF7E8FB04F11200EE
:10403000FEF7C0FB0220A075083C1822A169009180
:10404000A18BADF804108DF80600124902A8FCF708
:10405000F2F80DF1080C9CE80F00FEF745FEA06990
:104060000090A08BADF80400A07F8DF80600182208
:10407000084902A8FCF7DFF802AC94E80F00FEF74D
:10408000BFFFFEF791FB08B00146BDE8104002A05B
:10409000FDF7E8BE080000202044484350206C652E
:1040A000617365642074696D65203A20256C642015
:1040B0007365636F6E64730A0000000001A0FDF772
:1040C000D1FEFEE720436F6E666C69637420495031
:1040D0002066726F6D20444843500A0010B51520C9
:1040E000FDF7F4FD00F0E00010BD10B51620FDF75F
:1040F000EDFD00F00F0120F0100000EB012010BDDD
:1041000010B50446014606220920FDF70BFE0422E5
:1041100004F10E010120FDF705FE042204F10A015D
:104120000520FDF7FFFD0422A11D0F20FDF7FAFD7C
:1041300006480178A1744178E17481782175C078CE
:1041400060750248401E0078A07510BD5500002023
:104150000020FDF7BBBD70B504461920FDF7B6FD84
:1041600020701820FDF7B2FD05461720FDF7AEFDC3
:1041700005EB0020608070BD2DE9F0470E46054636
:10418000002400F02AF94FF0FF394FF0030835B34F
:104190000020295C21444CB2082C28DC401C40B291
:1041A0000428F6DB00240027285D01E07F1C7FB295
:1041B00020FA07F1012901D00028F7D11B20FDF7D3
:1041C00085FD620008FA02F1884397403843C1B286
:1041D0001B20FDF7E1FD641C64B2042CE3DB5EB33D
:1041E00000210846325C114449B2082902DD4846E4
:1041F000BDE8F087401C40B20428F3DB0024002710
:10420000305D01E07F1C7FB220FA07F1012902D066
:10421000295D0029F6D11A20FDF758FD610008FA42
:1042200001F290438F403843C1B21A20FDF7B4FD2C
:10423000641C64B2042CE2DB0020D9E70EB5012235
:1042400040211348FCF7D0FA12491348FFF7F4F85D
:1042500012491348FFF702F91249D1E90001CDE9EB
:10426000010101A90120FEF735F9401C01D10EA082
:104270000BE069460F20FEF72DF9401C04D09DF895
:1042800000000028F5D00EBD0EA0FDF7EBFD0EBD21
:10429000000402400140000819430008414400089E
:1042A000E142000860450008205735783030206929
:1042B0006E697469616C697A6564206661696C0A0B
:1042C0000000000020556E6B6E6F776E20504859CD
:1042D000206C696E6B207374617475730A00000042
:1042E0000EB500208DF80400FF208DF80800084866
:1042F000FCF7C2FD0128FAD10A200090012301AA8F
:1043000002A90348FCF74EFE9DF804000EBD000014
:10431000EC08002070470000002240210148FCF713
:1043200063BA000000040240C1B221F01001C0F3E2
:10433000032001431620FDF72FBD000010B50446F1
:10434000014606220920FDF753FD042204F10E0167
:104350000120FDF74DFD042204F10A010520FDF7BF
:1043600047FD0422A11D0F20FDF742FD0648A17C58
:104370000170E17C4170217D8170617DC1700249D5
:10438000A07D491E087010BD5500002010B50446E0
:1043900030F0380002D04FF0FF3010BD0020FDF7A4
:1043A00095FC40EA04010020FDF7F6FC002010BD5A
:1043B00010B5044601781920FDF7EEFC6088010A6B
:1043C0001720FDF7E9FCA178BDE810401820FDF7A3
:1043D000E3BC704700207047704700B585B00622E7
:1043E00069460920FDF79EFC042202A90120FDF781
:1043F00099FC042203A90520FDF794FC042204A9DA
:104400000F20FDF78FFC80210020FDF7C5FC002068
:10441000FDF75CFC062269460920FDF7E9FC042251
:1044200002A90120FDF7E4FC042203A90520FDF701
:10443000DFFC042204A90F20FDF7DAFC05B000BD63
:1044400001B582B00648FCF717FD0128FAD10A2011
:104450000090012301AA02A90148FCF7A3FD0EBDAB
:10446000EC08002010B504460020FFF751FC0121A4
:104470002170C20401D5617010BD00226270C305B5
:1044800001D5E17000E0E270800401D5A17010BD9B
:10449000A27010BD10B500243C20FDF717FCC0072A
:1044A00000D00124204610BD10B50020FFF730FCDD
:1044B00040F400410020FFF743FC0020FFF728FCF8
:1044C0000004FAD410BD10B504460020FFF720FC0C
:1044D0006178012910D0E17820F4805001290ED0B4
:1044E00020F48070A17801290CD020F40051BDE89F
:1044F00010400020FFF724BC40F48051F7E740F45F
:104500008070EFE740F40051F1E710B50446002059
:10451000FFF7FEFB012C0FD020F400610020FFF715
:104520000FFC0020FFF7F4FB012C4FEA005006D0EF
:10453000002806DB002010BD40F40061EEE70028F3
:10454000F8DB4FF0FF3010BD00000000000000005D
:104550000102030406070809000000000102030429
:1045600002020202020202023D3D3D3D3D3D3D3D53
:104570003D3D3D3D3D3D3D3D3D3D3D3D3D3D3D3D6B
:104580003D3D3D3D3D3D3D3D3D3D3D3D3D3D3D3D5B
:104590003D3D3D3D3D3D3D3D3D3D3D3D3D3D3D3D4B
:1045A0003D3D3D3D3D3D3D3D3D3D3D3D3D3D3D3D3B
:1045B0003D3D3D3D3D3D3D3D3D3D3D3D3D3D3D3D2B
:1045C0003D3D3D3D3D3D3D3D3D3D3D3D0A0A0000FB
:1045D0003D3D3D3D3D3D3D3D3D3D3D3D3D3D3D3D0B
:1045E0003D3D3D3D3D3D3D3D3D3D3D3D3D3D3D3DFB
:1045F0003D3D3D3D3D3D3D3D3D3D3D3D3D3D3D3DEB
:104600003D3D3D3D3D3D3D3D3D3D3D3D3D3D3D3DDA
:104610003D3D3D3D3D3D3D3D3D3D3D3D3D3D3D3DCA
:104620003D3D3D3D3D3D3D3D3D3D3D3D3D3D3D3DBA
:104630003D3D3D3D0A0000005846000800000020B6
:10464000EC000000A41E000844470008EC00002015
:10465000E40C0000B41E0008000000000000000090
:104660000008DC5F84E6C0A80B02FFFFFF00C0A8C3
:104670000B0108080808027777772E77697A6E654C
:10468000742E696F0000000001000000100000009F
:10469000000000000024F40000C000000000000042
:1046A000000000000000000000000000000000000A
:1046B0000000000000025735313030530000000088
:1046C000DD3F0008DF3F0008FB3F0008F93F00081E
:1046D000693F00086D3F0008000000000000000076
:1046E00000000000000000000000000000000000CA
:1046F0000000000000000000FFFFFFFF00000000BE
:104700000A00000085250008D5250008B12500080D
:104710000000000000000000000000000000000099
:1047200000000000000057495A6E65740000000048
:104730000000000000000000000000000000000079
:044740000000000075
:040000050800019955
:00000001FF
